S010000065746865726E65742E73726563B5
S11300000C94FE000C941F010C94F4050C941F0135
S11300100C941F010C941F010C941F010C941F01DC
S11300200C941F010C941F010C941F010C941F01CC
S11300300C941F010C941F010C941F010C941F01BC
S11300400C941F010C941F010C941F010C941F01AC
S11300500C941F010C941F010C941F010C941F019C
S11300600C941F010C941F010C941F010C941F018C
S11300700C941F010C941F010C941F010C941F017C
S11300800C941F010C941F010C941F010C941F016C
S11300900C941F010C941F010C941F010C941F015C
S11300A00C941F010C941F010C941F010C941F014C
S11300B00C941F010C941F010C941F010C941F013C
S11300C00C941F010C941F010C941F010C941F012C
S11300D00C941F010C941F010C941F010C941F011C
S11300E00C941F010C941F010C941F010C941F010C
S11300F00C941F010C941F010C941F010C941F01FC
S11301000C941F010C941F010C941F010C941F01EB
S11301100C941F010C941F010C941F010C941F01DB
S11301200C941F010C941F010C941F010C941F01CB
S11301300C941F010C941F010C941F010C941F01BB
S11301400C941F010C941F010C941F010C941F01AB
S11301500C941F010C941F010C941F010C941F019B
S11301600C941F010C941F010C941F010C941F018B
S11301700C941F010C941F010C941F010C941F017B
S11301800C941F010C941F010C941F010C941F016B
S11301900C941F010C941F010C941F010C941F015B
S11301A00C941F010C941F010C941F010C941F014B
S11301B00C941F010C941F010C941F010C941F013B
S11301C00C941F010C941F010C941F010C941F012B
S11301D00C941F010C941F010C941F010C941F011B
S11301E00C941F010C941F010C941F010C941F010B
S11301F00C941F010C941F010C941F0111241FBEA9
S1130200CFEFCDBFDFE5DEBF00E00CBF10E2A0E022
S1130210B0E2E2E0FFE000E00BBF02C007900D9205
S1130220A431B107D9F720E2A4E1B0E201C01D92E4
S1130230AA32B207E1F70E94F0050C947F070C94F0
S1130240000080E1809366068AEC8093C308E0ECAA
S1130250F8E082818823ECF78091C30880E18093E1
S11302606506089580E1809366068EEE8093C30848
S1130270E0ECF8E082818823ECF78091C30880E108
S113028080936506089580E18093660688ED8093E7
S1130290C308E0ECF8E082818823ECF78091C3087E
S11302A080E180936506089590E19093660690E25C
S11302B09093C308E0ECF8E092819923ECF78093E3
S11302C0C308E0ECF8E082818823ECF71092C308BD
S11302D0E0ECF8E082818823ECF7E0ECF8E023819D
S11302E0138282818823ECF78091C30890E1909374
S11302F0650690E0982F8827820F911D089590E15C
S11303009093660692E29093C308E0ECF8E0928141
S11303109923ECF78093C308E0ECF8E0828188230A
S1130320ECF76093C308E0ECF8E082818823ECF7F3
S11303307093C308E0ECF8E082818823ECF78091A5
S1130340C30880E180936506089560E470E882E75D
S11303500E947F01089590E19093660694E2909341
S1130360C308E0ECF8E092819923ECF78093C3088A
S1130370E0ECF8E082818823ECF76093C308E0ECBA
S1130380F8E082818823ECF77093C308E0ECF8E08E
S113039082818823ECF78091C30880E1809365060D
S11303A0089590E19093660696E29093C308E0EC7A
S11303B0F8E092819923ECF78093C308E0ECF8E02D
S11303C082818823ECF76093C308E0ECF8E0828133
S11303D08823ECF77093C308E0ECF8E0828188236B
S11303E0ECF78091C30880E180936506089564E387
S11303F072E186E10E947F0186E10E945401843308
S11304009241A9F78AE10E94540194FFFBCF0E9414
S1130410210180E18A95F1F700C086E10E94540130
S1130420892B59F526EA2A95F1F700C060E070EEB1
S11304308EE60E947F0184E00E9454018093142080
S11304409093152061E070E084E30E94D10161E0A3
S113045070E08EE10E94AB01E0E6F6E08AE1808B79
S113046081E0828782E08187E0EAF0E08281826035
S113047082830E94A50180E008958FEF089520E112
S1130480209366062CE62093C308E0ECF8E0228172
S11304902223ECF78093C308E0ECF8E08281882300
S11304A0ECF79093C308E0ECF8E082818823ECF742
S11304B08091C30880E180936506089580E180936C
S11304C0660684ED8093C308E0ECF8E0828188231B
S11304D0ECF78091C30880E18093650608954F92FC
S11304E05F926F927F928F929F92AF92BF92CF92C0
S11304F0DF92EF92FF920F931F93CF93DF93CDB7C9
S1130500DEB76C97CDBFDEBF4C015B013A01290118
S113051060911420709115208AE80E947F0180E187
S1130520809366068CE28093C308E0ECF8E0828155
S11305308823ECF71092C308E0ECF8E0828188236A
S1130540ECF7E0ECF8E09381138282818823ECF7E6
S1130550C090C308D12CDC2CCC24C90ED11CC09271
S11305601420D092152096E0E0ECF8E0138282810A
S11305708823ECF783819150C9F79CE0E0ECF8E024
S1130580138282818823ECF783819150C9F71092FA
S1130590C308E0ECF8E082818823ECF7E0ECF8E0B3
S11305A09381138282818823ECF78091C308983069
S11305B009F09BC081119BC0DE0111969E012B5E48
S11305C03F4FE0ECF8E0138282818823ECF78381CB
S11305D08D932A173B07B9F78981282F2F70220F93
S11305E0220F382F32953F70253158F094E1E0EC1A
S11305F0F8E0138282818823ECF783819F5F2913BB
S1130600F8CF343009F06DC08A85813109F06BC0B0
S11306108D85D4018C938E8511968C9311978F853B
S113062012968C931297888913968C938989F50175
S113063080838A8981838B8982838C898383DE0189
S113064055969E01235E3F4FE0ECF8E013828281D1
S11306508823ECF783818D932A173B07B9F78D899B
S113066090E0982F88272E89820F911DD3018D93B6
S11306709C938F8990E0982F8827288D820F911D55
S1130680F20180839183898D90E0382F22278A8D0F
S113069090E00897820F931FD8018D939C930E943A
S11306A05E06F70180839183D8018D919C91892BFB
S11306B0B1F020E030E0E0ECF8E01382828188239E
S11306C0ECF7838190E0D7018D939D937D012F5F9B
S11306D03F4FD8018D919C912817390770F310E092
S11306E007C01EEF05C01DEF03C01EEF01C01EEFC3
S11306F080E180936506C114D10421F0B6016250F3
S1130700710902C06EEF7FE586E00E947F0160E020
S113071071E08EE10E94AB01812F6C96CDBFDEBFEC
S1130720DF91CF911F910F91FF90EF90DF90CF90C9
S1130730BF90AF909F908F907F906F905F904F90FD
S11307400895CF93FC0112861386C081CF70CC0F1D
S1130750CC0F39F180E040E050E0BA01DF01A80F8E
S1130760B11D2C9130E0322F222711969C91290F34
S1130770311D420F531F611D711D8E5F8C1770F365
S1130780CB01AA27BB27882379F066277727480F50
S1130790511D611D711DCB01AA27BB278111F5CF06
S11307A003C040E050E0BA0140955095528743871A
S11307B0CF9108958F929F92AF92BF92CF92DF9282
S11307C0EF92FF920F931F93CF93DF93CDB7DEB7D2
S11307D02A97CDBFDEBF7C018B01690119821A8281
S11307E01B821C82232B51F0BA018AE00E947F01F4
S11307F0B6018CE00E947F010E944301011511059E
S113080009F180E090E020E049815A816B817C818C
S1130810F701E80FF91F808190E0982F8827318134
S1130820830F911D4A015B01880E991EA11CB11C06
S113083089829A82AB82BC822E5F822F90E08017DD
S1130840910710F389819A81AB81BC81CD01AA27DC
S1130850BB27882309F149815A816B817C816627F2
S1130860772749835A836B837C8349815A816B81BF
S11308707C818A019B01080F111D211D311D0983F3
S11308801A832B833C8389819A81AB81BC81CD01FE
S1130890AA27BB278111DFCF89819A81AB81BC81D3
S11308A08D839E83CD28C9F08EE10E94540185FD7D
S11308B0FBCF80E10E9454018F8398878F819885B4
S11308C02F813885582F4427832F9927840F951F0C
S11308D0809590958F83988702C01F8218862D81FA
S11308E03E818F819885A0E0B0E0820F931FA11D07
S11308F0B11D89839A83AB83BC8389819A81AB813F
S1130900BC81CD01AA27BB27882309F149815A81DB
S11309106B817C816627772749835A836B837C8329
S113092049815A816B817C814A015B01880E911C4B
S1130930A11CB11C89829A82AB82BC8289819A8172
S1130940AB81BC81CD01AA27BB278111DFCF89816F
S11309509A81AB81BC8180959095A095B09589834F
S11309609A83AB83BC8389819A81AB81BC81892BB7
S11309708A2B8B2B29F089819A81AB81BC8102C09F
S11309808FEF9FEF89879A8789859A852A96CDBFAD
S1130990DEBFDF91CF911F910F91FF90EF90DF9019
S11309A0CF90BF90AF909F908F9008952F923F92D9
S11309B04F925F926F927F928F929F92AF92BF926B
S11309C0CF92DF92EF92FF920F931F93CF93DF9317
S11309D0CDB7DEB7E897CDBFDEBF782E692E562E91
S11309E0472E942E852E222E332EC7010E943F02BD
S11309F0B70180E00E947F01B6016C5D7F4F82E009
S1130A000E947F01A92DB82DCE0101964C019E01B3
S1130A10295F3F4FFC018D9181932E173F07D9F732
S1130A2088E08F83188685E489871A86C6014C96E8
S1130A309B878C871D861E861F86188A80E8898B73
S1130A4081E18A8B1B8A1C8A872D962DBE016B5EE1
S1130A507F4F9E012B5D3F4FFE017996DC014D9146
S1130A60CD01DB014D93BD01D9014D939D01E617E5
S1130A70F707A1F7652D742DCE0189969E01235E9B
S1130A803F4FDB014D91BD014193DC014D93CD01FD
S1130A902E173F07B1F7CE0109960E94A1033D8EA0
S1130AA02E8E1F8F08A3C601089699A388E08C0D8B
S1130AB08AA33701B2E26B0E711C1BA21CA21DA6F5
S1130AC021E12EA79FA788AB39AA2AAA1BAB0CAB9E
S1130AD09DAB8EAB1FAA18AE80E1809366068AE2B6
S1130AE08093C308E0ECF8E082818823ECF79E0150
S1130AF02B5D3F4FE0ECF8E0D4018D914D018383F1
S1130B0082818823ECF728153905B1F7C114D10483
S1130B1069F0D501AC0CBD1CE0ECF8E08D91838349
S1130B2082818823ECF7AA16BB06C1F700EC18E013
S1130B30F80183810F2EF0E6AF2EF6E0BF2EF02DE4
S1130B406894992494F8D50115969C92A7014C5D5C
S1130B505F4F960164E170E0CE0185960E94DA034E
S1130B60F82EE92EC3010E943F02F50196828AE223
S1130B70D80113968C93E0ECF8E082818823ECF79B
S1130B80E092C308E0ECF8E082818823ECF7F0926D
S1130B90C308E0ECF8E082818823ECF78091C30875
S1130BA080E1809365068EE10E94540181FDFBCFB4
S1130BB00E945E02E896CDBFDEBFDF91CF911F9108
S1130BC00F91FF90EF90DF90CF90BF90AF909F90E8
S1130BD08F907F906F905F904F903F902F900895EB
S1130BE00E94F7017894FFCF1F920F920FB60F92D5
S1130BF011240BB60F92AF92BF92CF92DF92EF9275
S1130C00FF920F931F932F933F934F935F936F9391
S1130C107F938F939F93AF93BF93EF93FF930E9420
S1130C2032010F2EFCE1EF2EF0E2FF2EF02D0AE14F
S1130C3010E226E130E248E150E26EE170E282E245
S1130C4090E20E946F0281111CC0A0901C20B09001
S1130C501D20C0901A20D0901B20E12CF12C08EF0D
S1130C601AE228EF3AE24AE050E260E170E286E0FC
S1130C7090E20E94D60480911C2090911D200E9435
S1130C80F6060E94A501FF91EF91BF91AF919F914C
S1130C908F917F916F915F914F913F912F911F9110
S1130CA00F91FF90EF90DF90CF90BF90AF900F9097
S1130CB00BBE0F900FBE0F901F9018950F931F93AC
S1130CC0CF93DF938230910510F482E090E0E091BD
S1130CD02820F091292020E030E0A0E0B0E0309717
S1130CE019F1408151810281138148175907C8F0D5
S1130CF08417950769F4109731F012960C931297A4
S1130D0013961C9327C0009328201093292022C0F7
S1130D102115310519F04217530718F49A01BD0142
S1130D20EF01DF01F801DBCF21153105F9F0281BB4
S1130D30390B2430310580F48A819B81611571055A
S1130D4021F0FB018283938304C080932820909335
S1130D502920FE01329644C0FE01E20FF31F819365
S1130D60919322503109288339833AC02091262057
S1130D7030912720232B41F420910220309103202D
S1130D8020932620309327202091002030910120A9
S1130D902115310541F42DB73EB7409104205091FF
S1130DA00520241B350BE0912620F0912720E21723
S1130DB0F307A0F42E1B3F0B2817390778F0AC017A
S1130DC04E5F5F4F2417350748F04E0F5F1F409367
S1130DD02620509327208193919302C0E0E0F0E015
S1130DE0CF01DF91CF911F910F910895CF93DF939E
S1130DF0009709F481C0FC01329712821382A091FA
S1130E002820B0912920109781F420813181820F0C
S1130E10931F20912620309127202817390751F558
S1130E20E0932620F093272067C0ED0120E030E016
S1130E30CE17DF0740F44A815B819E0141155105BD
S1130E40F1F0EA01F5CFC283D38340815181840F4D
S1130E50951FC817D90759F488819981840F951F64
S1130E600296808391838A819B8182839383211557
S1130E70310529F4E0932820F09329203DC0E901AD
S1130E80EA83FB8349915991C40FD51FEC17FD07E1
S1130E9061F480819181840F951F0296E901888312
S1130EA09983828193818A839B83E0E0F0E01296A8
S1130EB08D919C911397009719F0FD01DC01F7CFF8
S1130EC08D919C9111979D012E5F3F4F820F931F2F
S1130ED020912620309127202817390769F430976C
S1130EE029F4109228201092292002C01282138221
S1130EF0A0932620B0932720DF91CF910895F894F2
S1050F00FFCF1D
S1130F0200002A202000C0A8010B00237D008A08CB
S1070F12C0A8010A64
S9030000FC
